{
  "_format": "hh-sol-artifact-1",
  "contractName": "SimpleEscrow",
  "sourceName": "contracts/SimpleEscrow.sol",
  "abi": [
    {
      "inputs": [
        {
          "internalType": "address",
          "name": "_usdtToken",
          "type": "address"
        }
      ],
      "stateMutability": "nonpayable",
      "type": "constructor"
    },
    {
      "anonymous": false,
      "inputs": [
        {
          "indexed": true,
          "internalType": "uint256",
          "name": "dealId",
          "type": "uint256"
        }
      ],
      "name": "DealCompleted",
      "type": "event"
    },
    {
      "anonymous": false,
      "inputs": [
        {
          "indexed": true,
          "internalType": "uint256",
          "name": "dealId",
          "type": "uint256"
        },
        {
          "indexed": false,
          "internalType": "address",
          "name": "buyer",
          "type": "address"
        },
        {
          "indexed": false,
          "internalType": "address",
          "name": "seller",
          "type": "address"
        },
        {
          "indexed": false,
          "internalType": "uint256",
          "name": "amount",
          "type": "uint256"
        }
      ],
      "name": "DealCreated",
      "type": "event"
    },
    {
      "inputs": [
        {
          "internalType": "uint256",
          "name": "_dealId",
          "type": "uint256"
        }
      ],
      "name": "cancelDeal",
      "outputs": [],
      "stateMutability": "nonpayable",
      "type": "function"
    },
    {
      "inputs": [
        {
          "internalType": "uint256",
          "name": "_dealId",
          "type": "uint256"
        }
      ],
      "name": "completeDeal",
      "outputs": [],
      "stateMutability": "nonpayable",
      "type": "function"
    },
    {
      "inputs": [
        {
          "internalType": "address",
          "name": "_seller",
          "type": "address"
        },
        {
          "internalType": "uint256",
          "name": "_amount",
          "type": "uint256"
        },
        {
          "internalType": "string",
          "name": "_itemId",
          "type": "string"
        }
      ],
      "name": "createDeal",
      "outputs": [
        {
          "internalType": "uint256",
          "name": "",
          "type": "uint256"
        }
      ],
      "stateMutability": "nonpayable",
      "type": "function"
    },
    {
      "inputs": [],
      "name": "dealCounter",
      "outputs": [
        {
          "internalType": "uint256",
          "name": "",
          "type": "uint256"
        }
      ],
      "stateMutability": "view",
      "type": "function"
    },
    {
      "inputs": [
        {
          "internalType": "uint256",
          "name": "",
          "type": "uint256"
        }
      ],
      "name": "deals",
      "outputs": [
        {
          "internalType": "address",
          "name": "buyer",
          "type": "address"
        },
        {
          "internalType": "address",
          "name": "seller",
          "type": "address"
        },
        {
          "internalType": "uint256",
          "name": "amount",
          "type": "uint256"
        },
        {
          "internalType": "uint256",
          "name": "marketplaceFee",
          "type": "uint256"
        },
        {
          "internalType": "bool",
          "name": "isCompleted",
          "type": "bool"
        },
        {
          "internalType": "bool",
          "name": "exists",
          "type": "bool"
        },
        {
          "internalType": "string",
          "name": "itemId",
          "type": "string"
        }
      ],
      "stateMutability": "view",
      "type": "function"
    },
    {
      "inputs": [
        {
          "internalType": "uint256",
          "name": "_dealId",
          "type": "uint256"
        }
      ],
      "name": "getDeal",
      "outputs": [
        {
          "internalType": "address",
          "name": "buyer",
          "type": "address"
        },
        {
          "internalType": "address",
          "name": "seller",
          "type": "address"
        },
        {
          "internalType": "uint256",
          "name": "amount",
          "type": "uint256"
        },
        {
          "internalType": "uint256",
          "name": "marketplaceFee",
          "type": "uint256"
        },
        {
          "internalType": "bool",
          "name": "isCompleted",
          "type": "bool"
        },
        {
          "internalType": "string",
          "name": "itemId",
          "type": "string"
        }
      ],
      "stateMutability": "view",
      "type": "function"
    },
    {
      "inputs": [],
      "name": "marketplace",
      "outputs": [
        {
          "internalType": "address",
          "name": "",
          "type": "address"
        }
      ],
      "stateMutability": "view",
      "type": "function"
    },
    {
      "inputs": [],
      "name": "usdtToken",
      "outputs": [
        {
          "internalType": "contract IERC20",
          "name": "",
          "type": "address"
        }
      ],
      "stateMutability": "view",
      "type": "function"
    }
  ],
  "bytecode": "0x608060405234801561001057600080fd5b50604051610f82380380610f8283398101604081905261002f9161005d565b600080546001600160a01b039092166001600160a01b0319928316179055600380549091163317905561008d565b60006020828403121561006f57600080fd5b81516001600160a01b038116811461008657600080fd5b9392505050565b610ee68061009c6000396000f3fe608060405234801561001057600080fd5b50600436106100885760003560e01c806382fd5bac1161005b57806382fd5bac146100fb578063a98ad46c14610120578063abc8c7af1461014b578063dec3456b1461015e57600080fd5b806303988f841461008d578063217328b6146100bc57806331e1b080146100d357806331ea1a39146100e6575b600080fd5b6100a061009b366004610a9b565b610171565b6040516100b39796959493929190610afa565b60405180910390f35b6100c560025481565b6040519081526020016100b3565b6100c56100e1366004610b67565b61024e565b6100f96100f4366004610a9b565b610510565b005b61010e610109366004610a9b565b6106cd565b6040516100b396959493929190610c40565b600054610133906001600160a01b031681565b6040516001600160a01b0390911681526020016100b3565b600354610133906001600160a01b031681565b6100f961016c366004610a9b565b6107e3565b60016020819052600091825260409091208054918101546002820154600383015460048401546005850180546001600160a01b0397881697909516959394929360ff8084169461010090940416929091906101cb90610c8e565b80601f01602080910402602001604051908101604052809291908181526020018280546101f790610c8e565b80156102445780601f1061021957610100808354040283529160200191610244565b820191906000526020600020905b81548152906001019060200180831161022757829003601f168201915b5050505050905087565b60008083116102995760405162461bcd60e51b81526020600482015260126024820152710416d6f756e74206d757374206265203e20360741b60448201526064015b60405180910390fd5b336001600160a01b038516036102f15760405162461bcd60e51b815260206004820152601960248201527f43616e6e6f74206465616c207769746820796f757273656c66000000000000006044820152606401610290565b60006064610300856005610cde565b61030a9190610cfb565b905060006103188286610d1d565b6000546040516323b872dd60e01b8152336004820152306024820152604481018390529192506001600160a01b0316906323b872dd906064016020604051808303816000875af1158015610370573d6000803e3d6000fd5b505050506040513d601f19601f820116820180604052508101906103949190610d30565b6103d25760405162461bcd60e51b815260206004820152600f60248201526e151c985b9cd9995c8819985a5b1959608a1b6044820152606401610290565b600280549060006103e283610d59565b90915550506040805160e0810182523381526001600160a01b0388811660208084019182528385018a815260608501888152600060808701818152600160a0890181815260c08a018f8152600280548652978390529a90932089518154908a166001600160a01b031991821617825597519181018054929099169190971617909655915192840192909255905160038301559151600482018054935115156101000261ff00199215159290921661ffff199094169390931717909155915190919060058201906104b29082610dc3565b5050600254604080513381526001600160a01b038a1660208201529081018890529091507fa1d51600bc538356bf8fd92c062edd8551d8ebffa6933a434365fbb0b2b6eb489060600160405180910390a25050600254949350505050565b6003546001600160a01b0316331461056a5760405162461bcd60e51b815260206004820152601b60248201527f4f6e6c79206d61726b6574706c6163652063616e2063616e63656c00000000006044820152606401610290565b60008181526001602052604090206004810154610100900460ff166105a15760405162461bcd60e51b815260040161029090610e83565b600481015460ff16156105ef5760405162461bcd60e51b81526020600482015260166024820152751119585b08185b1c9958591e4818dbdb5c1b195d195960521b6044820152606401610290565b6000816003015482600201546106059190610d1d565b600054835460405163a9059cbb60e01b81526001600160a01b03918216600482015260248101849052929350169063a9059cbb906044016020604051808303816000875af115801561065b573d6000803e3d6000fd5b505050506040513d601f19601f8201168201806040525081019061067f9190610d30565b6106bb5760405162461bcd60e51b815260206004820152600d60248201526c1499599d5b990819985a5b1959609a1b6044820152606401610290565b50600401805460ff1916600117905550565b60008181526001602052604081206004810154829182918291829160609190610100900460ff166107105760405162461bcd60e51b815260040161029090610e83565b805460018201546002830154600384015460048501546005860180546001600160a01b03968716969095169460ff90921691819061074d90610c8e565b80601f016020809104026020016040519081016040528092919081815260200182805461077990610c8e565b80156107c65780601f1061079b576101008083540402835291602001916107c6565b820191906000526020600020905b8154815290600101906020018083116107a957829003601f168201915b505050505090509650965096509650965096505091939550919395565b60008181526001602052604090206004810154610100900460ff1661081a5760405162461bcd60e51b815260040161029090610e83565b600481015460ff16156108685760405162461bcd60e51b81526020600482015260166024820152751119585b08185b1c9958591e4818dbdb5c1b195d195960521b6044820152606401610290565b60018101546001600160a01b031633146108c45760405162461bcd60e51b815260206004820152601860248201527f4f6e6c792073656c6c65722063616e20636f6d706c65746500000000000000006044820152606401610290565b6004818101805460ff1916600190811790915560005490830154600284015460405163a9059cbb60e01b81526001600160a01b03928316948101949094526024840152169063a9059cbb906044016020604051808303816000875af1158015610931573d6000803e3d6000fd5b505050506040513d601f19601f820116820180604052508101906109559190610d30565b6109a15760405162461bcd60e51b815260206004820152601860248201527f5061796d656e7420746f2073656c6c6572206661696c656400000000000000006044820152606401610290565b600054600380549083015460405163a9059cbb60e01b81526001600160a01b039283166004820152602481019190915291169063a9059cbb906044016020604051808303816000875af11580156109fc573d6000803e3d6000fd5b505050506040513d601f19601f82011682018060405250810190610a209190610d30565b610a6c5760405162461bcd60e51b815260206004820152601d60248201527f5061796d656e7420746f206d61726b6574706c616365206661696c65640000006044820152606401610290565b60405182907fe70f0403e69c896bbcf61b8ca0224ab04d6de1ade440bc896049efe6fe4e073190600090a25050565b600060208284031215610aad57600080fd5b5035919050565b6000815180845260005b81811015610ada57602081850181015186830182015201610abe565b506000602082860101526020601f19601f83011685010191505092915050565b6001600160a01b038881168252871660208201526040810186905260608101859052831515608082015282151560a082015260e060c08201819052600090610b4490830184610ab4565b9998505050505050505050565b634e487b7160e01b600052604160045260246000fd5b600080600060608486031215610b7c57600080fd5b83356001600160a01b0381168114610b9357600080fd5b925060208401359150604084013567ffffffffffffffff80821115610bb757600080fd5b818601915086601f830112610bcb57600080fd5b813581811115610bdd57610bdd610b51565b604051601f8201601f19908116603f01168101908382118183101715610c0557610c05610b51565b81604052828152896020848701011115610c1e57600080fd5b8260208601602083013760006020848301015280955050505050509250925092565b6001600160a01b038781168252861660208201526040810185905260608101849052821515608082015260c060a08201819052600090610c8290830184610ab4565b98975050505050505050565b600181811c90821680610ca257607f821691505b602082108103610cc257634e487b7160e01b600052602260045260246000fd5b50919050565b634e487b7160e01b600052601160045260246000fd5b8082028115828204841417610cf557610cf5610cc8565b92915050565b600082610d1857634e487b7160e01b600052601260045260246000fd5b500490565b80820180821115610cf557610cf5610cc8565b600060208284031215610d4257600080fd5b81518015158114610d5257600080fd5b9392505050565b600060018201610d6b57610d6b610cc8565b5060010190565b601f821115610dbe576000816000526020600020601f850160051c81016020861015610d9b5750805b601f850160051c820191505b81811015610dba57828155600101610da7565b5050505b505050565b815167ffffffffffffffff811115610ddd57610ddd610b51565b610df181610deb8454610c8e565b84610d72565b602080601f831160018114610e265760008415610e0e5750858301515b600019600386901b1c1916600185901b178555610dba565b600085815260208120601f198616915b82811015610e5557888601518255948401946001909101908401610e36565b5085821015610e735787850151600019600388901b60f8161c191681555b5050505050600190811b01905550565b6020808252601390820152721119585b08191bd95cc81b9bdd08195e1a5cdd606a1b60408201526060019056fea264697066735822122041efac0f8acee5564b5a52c9338738aaa53ed65b1bde4775610330633396081164736f6c63430008180033",
  "linkReferences": {},
  "deployedLinkReferences": {}
}