{
  "_format": "hh-sol-artifact-1",
  "contractName": "MockUSDT",
  "sourceName": "contracts/MockUSDT.sol",
  "abi": [
    {
      "inputs": [
        {
          "internalType": "string",
          "name": "name",
          "type": "string"
        },
        {
          "internalType": "string",
          "name": "symbol",
          "type": "string"
        },
        {
          "internalType": "uint8",
          "name": "decimals_",
          "type": "uint8"
        },
        {
          "internalType": "uint256",
          "name": "initialSupply",
          "type": "uint256"
        }
      ],
      "stateMutability": "nonpayable",
      "type": "constructor"
    },
    {
      "inputs": [
        {
          "internalType": "address",
          "name": "spender",
          "type": "address"
        },
        {
          "internalType": "uint256",
          "name": "allowance",
          "type": "uint256"
        },
        {
          "internalType": "uint256",
          "name": "needed",
          "type": "uint256"
        }
      ],
      "name": "ERC20InsufficientAllowance",
      "type": "error"
    },
    {
      "inputs": [
        {
          "internalType": "address",
          "name": "sender",
          "type": "address"
        },
        {
          "internalType": "uint256",
          "name": "balance",
          "type": "uint256"
        },
        {
          "internalType": "uint256",
          "name": "needed",
          "type": "uint256"
        }
      ],
      "name": "ERC20InsufficientBalance",
      "type": "error"
    },
    {
      "inputs": [
        {
          "internalType": "address",
          "name": "approver",
          "type": "address"
        }
      ],
      "name": "ERC20InvalidApprover",
      "type": "error"
    },
    {
      "inputs": [
        {
          "internalType": "address",
          "name": "receiver",
          "type": "address"
        }
      ],
      "name": "ERC20InvalidReceiver",
      "type": "error"
    },
    {
      "inputs": [
        {
          "internalType": "address",
          "name": "sender",
          "type": "address"
        }
      ],
      "name": "ERC20InvalidSender",
      "type": "error"
    },
    {
      "inputs": [
        {
          "internalType": "address",
          "name": "spender",
          "type": "address"
        }
      ],
      "name": "ERC20InvalidSpender",
      "type": "error"
    },
    {
      "inputs": [
        {
          "internalType": "address",
          "name": "owner",
          "type": "address"
        }
      ],
      "name": "OwnableInvalidOwner",
      "type": "error"
    },
    {
      "inputs": [
        {
          "internalType": "address",
          "name": "account",
          "type": "address"
        }
      ],
      "name": "OwnableUnauthorizedAccount",
      "type": "error"
    },
    {
      "anonymous": false,
      "inputs": [
        {
          "indexed": true,
          "internalType": "address",
          "name": "owner",
          "type": "address"
        },
        {
          "indexed": true,
          "internalType": "address",
          "name": "spender",
          "type": "address"
        },
        {
          "indexed": false,
          "internalType": "uint256",
          "name": "value",
          "type": "uint256"
        }
      ],
      "name": "Approval",
      "type": "event"
    },
    {
      "anonymous": false,
      "inputs": [
        {
          "indexed": true,
          "internalType": "address",
          "name": "previousOwner",
          "type": "address"
        },
        {
          "indexed": true,
          "internalType": "address",
          "name": "newOwner",
          "type": "address"
        }
      ],
      "name": "OwnershipTransferred",
      "type": "event"
    },
    {
      "anonymous": false,
      "inputs": [
        {
          "indexed": true,
          "internalType": "address",
          "name": "from",
          "type": "address"
        },
        {
          "indexed": true,
          "internalType": "address",
          "name": "to",
          "type": "address"
        },
        {
          "indexed": false,
          "internalType": "uint256",
          "name": "value",
          "type": "uint256"
        }
      ],
      "name": "Transfer",
      "type": "event"
    },
    {
      "inputs": [
        {
          "internalType": "address",
          "name": "owner",
          "type": "address"
        },
        {
          "internalType": "address",
          "name": "spender",
          "type": "address"
        }
      ],
      "name": "allowance",
      "outputs": [
        {
          "internalType": "uint256",
          "name": "",
          "type": "uint256"
        }
      ],
      "stateMutability": "view",
      "type": "function"
    },
    {
      "inputs": [
        {
          "internalType": "address",
          "name": "spender",
          "type": "address"
        },
        {
          "internalType": "uint256",
          "name": "value",
          "type": "uint256"
        }
      ],
      "name": "approve",
      "outputs": [
        {
          "internalType": "bool",
          "name": "",
          "type": "bool"
        }
      ],
      "stateMutability": "nonpayable",
      "type": "function"
    },
    {
      "inputs": [
        {
          "internalType": "address",
          "name": "account",
          "type": "address"
        }
      ],
      "name": "balanceOf",
      "outputs": [
        {
          "internalType": "uint256",
          "name": "",
          "type": "uint256"
        }
      ],
      "stateMutability": "view",
      "type": "function"
    },
    {
      "inputs": [
        {
          "internalType": "address",
          "name": "from",
          "type": "address"
        },
        {
          "internalType": "uint256",
          "name": "amount",
          "type": "uint256"
        }
      ],
      "name": "burn",
      "outputs": [],
      "stateMutability": "nonpayable",
      "type": "function"
    },
    {
      "inputs": [],
      "name": "decimals",
      "outputs": [
        {
          "internalType": "uint8",
          "name": "",
          "type": "uint8"
        }
      ],
      "stateMutability": "view",
      "type": "function"
    },
    {
      "inputs": [
        {
          "internalType": "uint256",
          "name": "amount",
          "type": "uint256"
        }
      ],
      "name": "faucet",
      "outputs": [],
      "stateMutability": "nonpayable",
      "type": "function"
    },
    {
      "inputs": [
        {
          "internalType": "address",
          "name": "to",
          "type": "address"
        },
        {
          "internalType": "uint256",
          "name": "amount",
          "type": "uint256"
        }
      ],
      "name": "mint",
      "outputs": [],
      "stateMutability": "nonpayable",
      "type": "function"
    },
    {
      "inputs": [
        {
          "internalType": "address[]",
          "name": "recipients",
          "type": "address[]"
        },
        {
          "internalType": "uint256[]",
          "name": "amounts",
          "type": "uint256[]"
        }
      ],
      "name": "mintBatch",
      "outputs": [],
      "stateMutability": "nonpayable",
      "type": "function"
    },
    {
      "inputs": [],
      "name": "name",
      "outputs": [
        {
          "internalType": "string",
          "name": "",
          "type": "string"
        }
      ],
      "stateMutability": "view",
      "type": "function"
    },
    {
      "inputs": [],
      "name": "owner",
      "outputs": [
        {
          "internalType": "address",
          "name": "",
          "type": "address"
        }
      ],
      "stateMutability": "view",
      "type": "function"
    },
    {
      "inputs": [],
      "name": "renounceOwnership",
      "outputs": [],
      "stateMutability": "nonpayable",
      "type": "function"
    },
    {
      "inputs": [],
      "name": "symbol",
      "outputs": [
        {
          "internalType": "string",
          "name": "",
          "type": "string"
        }
      ],
      "stateMutability": "view",
      "type": "function"
    },
    {
      "inputs": [],
      "name": "totalSupply",
      "outputs": [
        {
          "internalType": "uint256",
          "name": "",
          "type": "uint256"
        }
      ],
      "stateMutability": "view",
      "type": "function"
    },
    {
      "inputs": [
        {
          "internalType": "address",
          "name": "to",
          "type": "address"
        },
        {
          "internalType": "uint256",
          "name": "value",
          "type": "uint256"
        }
      ],
      "name": "transfer",
      "outputs": [
        {
          "internalType": "bool",
          "name": "",
          "type": "bool"
        }
      ],
      "stateMutability": "nonpayable",
      "type": "function"
    },
    {
      "inputs": [
        {
          "internalType": "address",
          "name": "from",
          "type": "address"
        },
        {
          "internalType": "address",
          "name": "to",
          "type": "address"
        },
        {
          "internalType": "uint256",
          "name": "value",
          "type": "uint256"
        }
      ],
      "name": "transferFrom",
      "outputs": [
        {
          "internalType": "bool",
          "name": "",
          "type": "bool"
        }
      ],
      "stateMutability": "nonpayable",
      "type": "function"
    },
    {
      "inputs": [
        {
          "internalType": "address",
          "name": "newOwner",
          "type": "address"
        }
      ],
      "name": "transferOwnership",
      "outputs": [],
      "stateMutability": "nonpayable",
      "type": "function"
    }
  ],
  "bytecode": "0x60806040523480156200001157600080fd5b506040516200143b3803806200143b833981016040819052620000349162000364565b338484600362000045838262000480565b50600462000054828262000480565b5050506001600160a01b0381166200008757604051631e4fbdf760e01b8152600060048201526024015b60405180910390fd5b6200009281620000d9565b506005805460ff60a01b1916600160a01b60ff851602179055620000cf33620000bd84600a62000661565b620000c9908462000679565b6200012b565b50505050620006a9565b600580546001600160a01b038381166001600160a01b0319831681179093556040519116919082907f8be0079c531659141344cd1fd0a4f28419497f9722a3daafe3b4186f6b6457e090600090a35050565b6001600160a01b038216620001575760405163ec442f0560e01b8152600060048201526024016200007e565b620001656000838362000169565b5050565b6001600160a01b038316620001985780600260008282546200018c919062000693565b909155506200020c9050565b6001600160a01b03831660009081526020819052604090205481811015620001ed5760405163391434e360e21b81526001600160a01b038516600482015260248101829052604481018390526064016200007e565b6001600160a01b03841660009081526020819052604090209082900390555b6001600160a01b0382166200022a5760028054829003905562000249565b6001600160a01b03821660009081526020819052604090208054820190555b816001600160a01b0316836001600160a01b03167fddf252ad1be2c89b69c2b068fc378daa952ba7f163c4a11628f55a4df523b3ef836040516200028f91815260200190565b60405180910390a3505050565b634e487b7160e01b600052604160045260246000fd5b600082601f830112620002c457600080fd5b81516001600160401b0380821115620002e157620002e16200029c565b604051601f8301601f19908116603f011681019082821181831017156200030c576200030c6200029c565b81604052838152602092508660208588010111156200032a57600080fd5b600091505b838210156200034e57858201830151818301840152908201906200032f565b6000602085830101528094505050505092915050565b600080600080608085870312156200037b57600080fd5b84516001600160401b03808211156200039357600080fd5b620003a188838901620002b2565b95506020870151915080821115620003b857600080fd5b50620003c787828801620002b2565b935050604085015160ff81168114620003df57600080fd5b6060959095015193969295505050565b600181811c908216806200040457607f821691505b6020821081036200042557634e487b7160e01b600052602260045260246000fd5b50919050565b601f8211156200047b576000816000526020600020601f850160051c81016020861015620004565750805b601f850160051c820191505b81811015620004775782815560010162000462565b5050505b505050565b81516001600160401b038111156200049c576200049c6200029c565b620004b481620004ad8454620003ef565b846200042b565b602080601f831160018114620004ec5760008415620004d35750858301515b600019600386901b1c1916600185901b17855562000477565b600085815260208120601f198616915b828110156200051d57888601518255948401946001909101908401620004fc565b50858210156200053c5787850151600019600388901b60f8161c191681555b5050505050600190811b01905550565b634e487b7160e01b600052601160045260246000fd5b600181815b80851115620005a35781600019048211156200058757620005876200054c565b808516156200059557918102915b93841c939080029062000567565b509250929050565b600082620005bc575060016200065b565b81620005cb575060006200065b565b8160018114620005e45760028114620005ef576200060f565b60019150506200065b565b60ff8411156200060357620006036200054c565b50506001821b6200065b565b5060208310610133831016604e8410600b841016171562000634575081810a6200065b565b62000640838362000562565b80600019048211156200065757620006576200054c565b0290505b92915050565b60006200067260ff841683620005ab565b9392505050565b80820281158282048414176200065b576200065b6200054c565b808201808211156200065b576200065b6200054c565b610d8280620006b96000396000f3fe608060405234801561001057600080fd5b50600436106101005760003560e01c8063715018a6116100975780639dc29fac116100665780639dc29fac14610219578063a9059cbb1461022c578063dd62ed3e1461023f578063f2fde38b1461027857600080fd5b8063715018a6146101db5780637c88e3d9146101e35780638da5cb5b146101f657806395d89b411461021157600080fd5b8063313ce567116100d3578063313ce5671461016b57806340c10f191461018a578063579158971461019f57806370a08231146101b257600080fd5b806306fdde0314610105578063095ea7b31461012357806318160ddd1461014657806323b872dd14610158575b600080fd5b61010d61028b565b60405161011a91906108f0565b60405180910390f35b61013661013136600461095b565b61031d565b604051901515815260200161011a565b6002545b60405190815260200161011a565b610136610166366004610985565b610337565b600554600160a01b900460ff1660405160ff909116815260200161011a565b61019d61019836600461095b565b61035b565b005b61019d6101ad3660046109c1565b610371565b61014a6101c03660046109da565b6001600160a01b031660009081526020819052604090205490565b61019d6103f6565b61019d6101f1366004610ad6565b61040a565b6005546040516001600160a01b03909116815260200161011a565b61010d6104b1565b61019d61022736600461095b565b6104c0565b61013661023a36600461095b565b6104d2565b61014a61024d366004610b96565b6001600160a01b03918216600090815260016020908152604080832093909416825291909152205490565b61019d6102863660046109da565b6104e0565b60606003805461029a90610bc9565b80601f01602080910402602001604051908101604052809291908181526020018280546102c690610bc9565b80156103135780601f106102e857610100808354040283529160200191610313565b820191906000526020600020905b8154815290600101906020018083116102f657829003601f168201915b5050505050905090565b60003361032b81858561051b565b60019150505b92915050565b600033610345858285610528565b6103508585856105a7565b506001949350505050565b610363610606565b61036d8282610633565b5050565b600554600160a01b900460ff1661038990600a610cfd565b610395906103e8610d0c565b8111156103e95760405162461bcd60e51b815260206004820152601a60248201527f4d6178203130303020746f6b656e73207065722066617563657400000000000060448201526064015b60405180910390fd5b6103f33382610633565b50565b6103fe610606565b6104086000610669565b565b610412610606565b805182511461045c5760405162461bcd60e51b8152602060048201526016602482015275082e4e4c2f2e640d8cadccee8d040dad2e6dac2e8c6d60531b60448201526064016103e0565b60005b82518110156104ac576104a483828151811061047d5761047d610d23565b602002602001015183838151811061049757610497610d23565b6020026020010151610633565b60010161045f565b505050565b60606004805461029a90610bc9565b6104c8610606565b61036d82826106bb565b60003361032b8185856105a7565b6104e8610606565b6001600160a01b03811661051257604051631e4fbdf760e01b8152600060048201526024016103e0565b6103f381610669565b6104ac83838360016106f1565b6001600160a01b038381166000908152600160209081526040808320938616835292905220546000198110156105a1578181101561059257604051637dc7a0d960e11b81526001600160a01b038416600482015260248101829052604481018390526064016103e0565b6105a1848484840360006106f1565b50505050565b6001600160a01b0383166105d157604051634b637e8f60e11b8152600060048201526024016103e0565b6001600160a01b0382166105fb5760405163ec442f0560e01b8152600060048201526024016103e0565b6104ac8383836107c6565b6005546001600160a01b031633146104085760405163118cdaa760e01b81523360048201526024016103e0565b6001600160a01b03821661065d5760405163ec442f0560e01b8152600060048201526024016103e0565b61036d600083836107c6565b600580546001600160a01b038381166001600160a01b0319831681179093556040519116919082907f8be0079c531659141344cd1fd0a4f28419497f9722a3daafe3b4186f6b6457e090600090a35050565b6001600160a01b0382166106e557604051634b637e8f60e11b8152600060048201526024016103e0565b61036d826000836107c6565b6001600160a01b03841661071b5760405163e602df0560e01b8152600060048201526024016103e0565b6001600160a01b03831661074557604051634a1406b160e11b8152600060048201526024016103e0565b6001600160a01b03808516600090815260016020908152604080832093871683529290522082905580156105a157826001600160a01b0316846001600160a01b03167f8c5be1e5ebec7d5bd14f71427d1e84f3dd0314c0f7b2291e5b200ac8c7c3b925846040516107b891815260200190565b60405180910390a350505050565b6001600160a01b0383166107f15780600260008282546107e69190610d39565b909155506108639050565b6001600160a01b038316600090815260208190526040902054818110156108445760405163391434e360e21b81526001600160a01b038516600482015260248101829052604481018390526064016103e0565b6001600160a01b03841660009081526020819052604090209082900390555b6001600160a01b03821661087f5760028054829003905561089e565b6001600160a01b03821660009081526020819052604090208054820190555b816001600160a01b0316836001600160a01b03167fddf252ad1be2c89b69c2b068fc378daa952ba7f163c4a11628f55a4df523b3ef836040516108e391815260200190565b60405180910390a3505050565b60006020808352835180602085015260005b8181101561091e57858101830151858201604001528201610902565b506000604082860101526040601f19601f8301168501019250505092915050565b80356001600160a01b038116811461095657600080fd5b919050565b6000806040838503121561096e57600080fd5b6109778361093f565b946020939093013593505050565b60008060006060848603121561099a57600080fd5b6109a38461093f565b92506109b16020850161093f565b9150604084013590509250925092565b6000602082840312156109d357600080fd5b5035919050565b6000602082840312156109ec57600080fd5b6109f58261093f565b9392505050565b634e487b7160e01b600052604160045260246000fd5b604051601f8201601f1916810167ffffffffffffffff81118282101715610a3b57610a3b6109fc565b604052919050565b600067ffffffffffffffff821115610a5d57610a5d6109fc565b5060051b60200190565b600082601f830112610a7857600080fd5b81356020610a8d610a8883610a43565b610a12565b8083825260208201915060208460051b870101935086841115610aaf57600080fd5b602086015b84811015610acb5780358352918301918301610ab4565b509695505050505050565b60008060408385031215610ae957600080fd5b823567ffffffffffffffff80821115610b0157600080fd5b818501915085601f830112610b1557600080fd5b81356020610b25610a8883610a43565b82815260059290921b84018101918181019089841115610b4457600080fd5b948201945b83861015610b6957610b5a8661093f565b82529482019490820190610b49565b96505086013592505080821115610b7f57600080fd5b50610b8c85828601610a67565b9150509250929050565b60008060408385031215610ba957600080fd5b610bb28361093f565b9150610bc06020840161093f565b90509250929050565b600181811c90821680610bdd57607f821691505b602082108103610bfd57634e487b7160e01b600052602260045260246000fd5b50919050565b634e487b7160e01b600052601160045260246000fd5b600181815b80851115610c54578160001904821115610c3a57610c3a610c03565b80851615610c4757918102915b93841c9390800290610c1e565b509250929050565b600082610c6b57506001610331565b81610c7857506000610331565b8160018114610c8e5760028114610c9857610cb4565b6001915050610331565b60ff841115610ca957610ca9610c03565b50506001821b610331565b5060208310610133831016604e8410600b8410161715610cd7575081810a610331565b610ce18383610c19565b8060001904821115610cf557610cf5610c03565b029392505050565b60006109f560ff841683610c5c565b808202811582820484141761033157610331610c03565b634e487b7160e01b600052603260045260246000fd5b8082018082111561033157610331610c0356fea264697066735822122080139be0632956a0fad2c04485d38cfae3c0c3259be8b85c3b8faeb4c25a1f2164736f6c63430008180033",
  "linkReferences": {},
  "deployedLinkReferences": {}
}