{
  "_format": "hh-sol-artifact-1",
  "contractName": "PrestarEscrow",
  "sourceName": "contracts/PrestarEscrow.sol",
  "abi": [
    {
      "inputs": [
        {
          "internalType": "address",
          "name": "_marketplaceWallet",
          "type": "address"
        },
        {
          "internalType": "address",
          "name": "_arbitrator",
          "type": "address"
        }
      ],
      "stateMutability": "nonpayable",
      "type": "constructor"
    },
    {
      "inputs": [],
      "name": "EnforcedPause",
      "type": "error"
    },
    {
      "inputs": [],
      "name": "ExpectedPause",
      "type": "error"
    },
    {
      "inputs": [
        {
          "internalType": "address",
          "name": "owner",
          "type": "address"
        }
      ],
      "name": "OwnableInvalidOwner",
      "type": "error"
    },
    {
      "inputs": [
        {
          "internalType": "address",
          "name": "account",
          "type": "address"
        }
      ],
      "name": "OwnableUnauthorizedAccount",
      "type": "error"
    },
    {
      "inputs": [],
      "name": "ReentrancyGuardReentrantCall",
      "type": "error"
    },
    {
      "anonymous": false,
      "inputs": [
        {
          "indexed": true,
          "internalType": "uint256",
          "name": "dealId",
          "type": "uint256"
        }
      ],
      "name": "DealCancelled",
      "type": "event"
    },
    {
      "anonymous": false,
      "inputs": [
        {
          "indexed": true,
          "internalType": "uint256",
          "name": "dealId",
          "type": "uint256"
        },
        {
          "indexed": false,
          "internalType": "uint256",
          "name": "ownerAmount",
          "type": "uint256"
        },
        {
          "indexed": false,
          "internalType": "uint256",
          "name": "marketplaceFee",
          "type": "uint256"
        }
      ],
      "name": "DealCompleted",
      "type": "event"
    },
    {
      "anonymous": false,
      "inputs": [
        {
          "indexed": true,
          "internalType": "uint256",
          "name": "dealId",
          "type": "uint256"
        },
        {
          "indexed": true,
          "internalType": "address",
          "name": "confirmer",
          "type": "address"
        }
      ],
      "name": "DealConfirmed",
      "type": "event"
    },
    {
      "anonymous": false,
      "inputs": [
        {
          "indexed": true,
          "internalType": "uint256",
          "name": "dealId",
          "type": "uint256"
        },
        {
          "indexed": true,
          "internalType": "address",
          "name": "owner",
          "type": "address"
        },
        {
          "indexed": true,
          "internalType": "address",
          "name": "renter",
          "type": "address"
        },
        {
          "indexed": false,
          "internalType": "address",
          "name": "tokenAddress",
          "type": "address"
        },
        {
          "indexed": false,
          "internalType": "uint256",
          "name": "amount",
          "type": "uint256"
        },
        {
          "indexed": false,
          "internalType": "string",
          "name": "itemId",
          "type": "string"
        }
      ],
      "name": "DealCreated",
      "type": "event"
    },
    {
      "anonymous": false,
      "inputs": [
        {
          "indexed": true,
          "internalType": "uint256",
          "name": "dealId",
          "type": "uint256"
        },
        {
          "indexed": true,
          "internalType": "address",
          "name": "disputer",
          "type": "address"
        }
      ],
      "name": "DealDisputed",
      "type": "event"
    },
    {
      "anonymous": false,
      "inputs": [
        {
          "indexed": true,
          "internalType": "uint256",
          "name": "dealId",
          "type": "uint256"
        },
        {
          "indexed": false,
          "internalType": "address",
          "name": "winner",
          "type": "address"
        },
        {
          "indexed": false,
          "internalType": "uint256",
          "name": "amount",
          "type": "uint256"
        }
      ],
      "name": "DealResolved",
      "type": "event"
    },
    {
      "anonymous": false,
      "inputs": [
        {
          "indexed": true,
          "internalType": "address",
          "name": "previousOwner",
          "type": "address"
        },
        {
          "indexed": true,
          "internalType": "address",
          "name": "newOwner",
          "type": "address"
        }
      ],
      "name": "OwnershipTransferred",
      "type": "event"
    },
    {
      "anonymous": false,
      "inputs": [
        {
          "indexed": false,
          "internalType": "address",
          "name": "account",
          "type": "address"
        }
      ],
      "name": "Paused",
      "type": "event"
    },
    {
      "anonymous": false,
      "inputs": [
        {
          "indexed": true,
          "internalType": "address",
          "name": "tokenAddress",
          "type": "address"
        }
      ],
      "name": "TokenAdded",
      "type": "event"
    },
    {
      "anonymous": false,
      "inputs": [
        {
          "indexed": true,
          "internalType": "address",
          "name": "tokenAddress",
          "type": "address"
        }
      ],
      "name": "TokenRemoved",
      "type": "event"
    },
    {
      "anonymous": false,
      "inputs": [
        {
          "indexed": false,
          "internalType": "address",
          "name": "account",
          "type": "address"
        }
      ],
      "name": "Unpaused",
      "type": "event"
    },
    {
      "inputs": [
        {
          "internalType": "uint256",
          "name": "dealId",
          "type": "uint256"
        }
      ],
      "name": "activateDeal",
      "outputs": [],
      "stateMutability": "nonpayable",
      "type": "function"
    },
    {
      "inputs": [
        {
          "internalType": "address",
          "name": "tokenAddress",
          "type": "address"
        }
      ],
      "name": "addSupportedToken",
      "outputs": [],
      "stateMutability": "nonpayable",
      "type": "function"
    },
    {
      "inputs": [],
      "name": "arbitrator",
      "outputs": [
        {
          "internalType": "address",
          "name": "",
          "type": "address"
        }
      ],
      "stateMutability": "view",
      "type": "function"
    },
    {
      "inputs": [
        {
          "internalType": "uint256",
          "name": "dealId",
          "type": "uint256"
        }
      ],
      "name": "autoComplete",
      "outputs": [],
      "stateMutability": "nonpayable",
      "type": "function"
    },
    {
      "inputs": [
        {
          "internalType": "uint256",
          "name": "dealId",
          "type": "uint256"
        }
      ],
      "name": "cancelDeal",
      "outputs": [],
      "stateMutability": "nonpayable",
      "type": "function"
    },
    {
      "inputs": [
        {
          "internalType": "uint256",
          "name": "dealId",
          "type": "uint256"
        }
      ],
      "name": "confirmReturn",
      "outputs": [],
      "stateMutability": "nonpayable",
      "type": "function"
    },
    {
      "inputs": [
        {
          "internalType": "address",
          "name": "_owner",
          "type": "address"
        },
        {
          "internalType": "address",
          "name": "_tokenAddress",
          "type": "address"
        },
        {
          "internalType": "uint256",
          "name": "_amount",
          "type": "uint256"
        },
        {
          "internalType": "uint256",
          "name": "_startDate",
          "type": "uint256"
        },
        {
          "internalType": "uint256",
          "name": "_endDate",
          "type": "uint256"
        },
        {
          "internalType": "string",
          "name": "_itemId",
          "type": "string"
        }
      ],
      "name": "createDeal",
      "outputs": [
        {
          "internalType": "uint256",
          "name": "",
          "type": "uint256"
        }
      ],
      "stateMutability": "nonpayable",
      "type": "function"
    },
    {
      "inputs": [
        {
          "internalType": "uint256",
          "name": "",
          "type": "uint256"
        }
      ],
      "name": "deals",
      "outputs": [
        {
          "internalType": "address",
          "name": "owner",
          "type": "address"
        },
        {
          "internalType": "address",
          "name": "renter",
          "type": "address"
        },
        {
          "internalType": "address",
          "name": "tokenAddress",
          "type": "address"
        },
        {
          "internalType": "uint256",
          "name": "amount",
          "type": "uint256"
        },
        {
          "internalType": "uint256",
          "name": "marketplaceFee",
          "type": "uint256"
        },
        {
          "internalType": "uint256",
          "name": "ownerAmount",
          "type": "uint256"
        },
        {
          "internalType": "uint256",
          "name": "startDate",
          "type": "uint256"
        },
        {
          "internalType": "uint256",
          "name": "endDate",
          "type": "uint256"
        },
        {
          "internalType": "uint256",
          "name": "createdAt",
          "type": "uint256"
        },
        {
          "internalType": "enum PrestarEscrow.DealStatus",
          "name": "status",
          "type": "uint8"
        },
        {
          "internalType": "bool",
          "name": "ownerConfirmed",
          "type": "bool"
        },
        {
          "internalType": "bool",
          "name": "renterConfirmed",
          "type": "bool"
        },
        {
          "internalType": "string",
          "name": "itemId",
          "type": "string"
        }
      ],
      "stateMutability": "view",
      "type": "function"
    },
    {
      "inputs": [],
      "name": "defaultMarketplaceFeePercentage",
      "outputs": [
        {
          "internalType": "uint256",
          "name": "",
          "type": "uint256"
        }
      ],
      "stateMutability": "view",
      "type": "function"
    },
    {
      "inputs": [],
      "name": "disputeTimeout",
      "outputs": [
        {
          "internalType": "uint256",
          "name": "",
          "type": "uint256"
        }
      ],
      "stateMutability": "view",
      "type": "function"
    },
    {
      "inputs": [
        {
          "internalType": "address",
          "name": "tokenAddress",
          "type": "address"
        },
        {
          "internalType": "uint256",
          "name": "amount",
          "type": "uint256"
        }
      ],
      "name": "emergencyWithdraw",
      "outputs": [],
      "stateMutability": "nonpayable",
      "type": "function"
    },
    {
      "inputs": [
        {
          "internalType": "address",
          "name": "tokenAddress",
          "type": "address"
        }
      ],
      "name": "getContractBalance",
      "outputs": [
        {
          "internalType": "uint256",
          "name": "",
          "type": "uint256"
        }
      ],
      "stateMutability": "view",
      "type": "function"
    },
    {
      "inputs": [
        {
          "internalType": "uint256",
          "name": "dealId",
          "type": "uint256"
        }
      ],
      "name": "getDeal",
      "outputs": [
        {
          "components": [
            {
              "internalType": "address",
              "name": "owner",
              "type": "address"
            },
            {
              "internalType": "address",
              "name": "renter",
              "type": "address"
            },
            {
              "internalType": "address",
              "name": "tokenAddress",
              "type": "address"
            },
            {
              "internalType": "uint256",
              "name": "amount",
              "type": "uint256"
            },
            {
              "internalType": "uint256",
              "name": "marketplaceFee",
              "type": "uint256"
            },
            {
              "internalType": "uint256",
              "name": "ownerAmount",
              "type": "uint256"
            },
            {
              "internalType": "uint256",
              "name": "startDate",
              "type": "uint256"
            },
            {
              "internalType": "uint256",
              "name": "endDate",
              "type": "uint256"
            },
            {
              "internalType": "uint256",
              "name": "createdAt",
              "type": "uint256"
            },
            {
              "internalType": "enum PrestarEscrow.DealStatus",
              "name": "status",
              "type": "uint8"
            },
            {
              "internalType": "bool",
              "name": "ownerConfirmed",
              "type": "bool"
            },
            {
              "internalType": "bool",
              "name": "renterConfirmed",
              "type": "bool"
            },
            {
              "internalType": "string",
              "name": "itemId",
              "type": "string"
            }
          ],
          "internalType": "struct PrestarEscrow.Deal",
          "name": "",
          "type": "tuple"
        }
      ],
      "stateMutability": "view",
      "type": "function"
    },
    {
      "inputs": [
        {
          "internalType": "address",
          "name": "user",
          "type": "address"
        }
      ],
      "name": "getUserDeals",
      "outputs": [
        {
          "internalType": "uint256[]",
          "name": "",
          "type": "uint256[]"
        }
      ],
      "stateMutability": "view",
      "type": "function"
    },
    {
      "inputs": [
        {
          "internalType": "address",
          "name": "tokenAddress",
          "type": "address"
        }
      ],
      "name": "isTokenSupported",
      "outputs": [
        {
          "internalType": "bool",
          "name": "",
          "type": "bool"
        }
      ],
      "stateMutability": "view",
      "type": "function"
    },
    {
      "inputs": [
        {
          "internalType": "uint256",
          "name": "dealId",
          "type": "uint256"
        }
      ],
      "name": "markCompleted",
      "outputs": [],
      "stateMutability": "nonpayable",
      "type": "function"
    },
    {
      "inputs": [],
      "name": "marketplaceWallet",
      "outputs": [
        {
          "internalType": "address",
          "name": "",
          "type": "address"
        }
      ],
      "stateMutability": "view",
      "type": "function"
    },
    {
      "inputs": [],
      "name": "nextDealId",
      "outputs": [
        {
          "internalType": "uint256",
          "name": "",
          "type": "uint256"
        }
      ],
      "stateMutability": "view",
      "type": "function"
    },
    {
      "inputs": [],
      "name": "owner",
      "outputs": [
        {
          "internalType": "address",
          "name": "",
          "type": "address"
        }
      ],
      "stateMutability": "view",
      "type": "function"
    },
    {
      "inputs": [],
      "name": "pause",
      "outputs": [],
      "stateMutability": "nonpayable",
      "type": "function"
    },
    {
      "inputs": [],
      "name": "paused",
      "outputs": [
        {
          "internalType": "bool",
          "name": "",
          "type": "bool"
        }
      ],
      "stateMutability": "view",
      "type": "function"
    },
    {
      "inputs": [
        {
          "internalType": "address",
          "name": "tokenAddress",
          "type": "address"
        }
      ],
      "name": "removeSupportedToken",
      "outputs": [],
      "stateMutability": "nonpayable",
      "type": "function"
    },
    {
      "inputs": [],
      "name": "renounceOwnership",
      "outputs": [],
      "stateMutability": "nonpayable",
      "type": "function"
    },
    {
      "inputs": [
        {
          "internalType": "uint256",
          "name": "dealId",
          "type": "uint256"
        }
      ],
      "name": "reportDispute",
      "outputs": [],
      "stateMutability": "nonpayable",
      "type": "function"
    },
    {
      "inputs": [
        {
          "internalType": "uint256",
          "name": "dealId",
          "type": "uint256"
        },
        {
          "internalType": "bool",
          "name": "winnerIsOwner",
          "type": "bool"
        }
      ],
      "name": "resolveDispute",
      "outputs": [],
      "stateMutability": "nonpayable",
      "type": "function"
    },
    {
      "inputs": [
        {
          "internalType": "address",
          "name": "_arbitrator",
          "type": "address"
        }
      ],
      "name": "setArbitrator",
      "outputs": [],
      "stateMutability": "nonpayable",
      "type": "function"
    },
    {
      "inputs": [
        {
          "internalType": "uint256",
          "name": "_disputeTimeout",
          "type": "uint256"
        }
      ],
      "name": "setDisputeTimeout",
      "outputs": [],
      "stateMutability": "nonpayable",
      "type": "function"
    },
    {
      "inputs": [
        {
          "internalType": "uint256",
          "name": "_feePercentage",
          "type": "uint256"
        }
      ],
      "name": "setMarketplaceFeePercentage",
      "outputs": [],
      "stateMutability": "nonpayable",
      "type": "function"
    },
    {
      "inputs": [
        {
          "internalType": "address",
          "name": "_marketplaceWallet",
          "type": "address"
        }
      ],
      "name": "setMarketplaceWallet",
      "outputs": [],
      "stateMutability": "nonpayable",
      "type": "function"
    },
    {
      "inputs": [
        {
          "internalType": "address",
          "name": "",
          "type": "address"
        }
      ],
      "name": "supportedTokens",
      "outputs": [
        {
          "internalType": "bool",
          "name": "",
          "type": "bool"
        }
      ],
      "stateMutability": "view",
      "type": "function"
    },
    {
      "inputs": [
        {
          "internalType": "address",
          "name": "newOwner",
          "type": "address"
        }
      ],
      "name": "transferOwnership",
      "outputs": [],
      "stateMutability": "nonpayable",
      "type": "function"
    },
    {
      "inputs": [],
      "name": "unpause",
      "outputs": [],
      "stateMutability": "nonpayable",
      "type": "function"
    },
    {
      "inputs": [
        {
          "internalType": "address",
          "name": "",
          "type": "address"
        },
        {
          "internalType": "uint256",
          "name": "",
          "type": "uint256"
        }
      ],
      "name": "userDeals",
      "outputs": [
        {
          "internalType": "uint256",
          "name": "",
          "type": "uint256"
        }
      ],
      "stateMutability": "view",
      "type": "function"
    }
  ],
  "bytecode": "0x608060405260016005556101f460065562093a806009553480156200002357600080fd5b50604051620032cc380380620032cc8339810160408190526200004691620001a0565b600160005533806200007257604051631e4fbdf760e01b81526000600482015260240160405180910390fd5b6200007d8162000129565b50600780546001600160a01b039384166001600160a01b0319918216179091556008805492909316911617905560036020527f8074f9b31d5eea44f67a93802db877cc8595c0116fdb14f15f1ec6dc1e931a1c805460ff199081166001908117909255732791bca1f2de4661ed88a30c99a7a9449aa841746000527f0327f1365ac56c1f1e49b7693a6598d766722e77bea7cba8e65c8ee8d37fc45d80549091169091179055620001d8565b600180546001600160a01b03838116610100818102610100600160a81b031985161790945560405193909204169182907f8be0079c531659141344cd1fd0a4f28419497f9722a3daafe3b4186f6b6457e090600090a35050565b80516001600160a01b03811681146200019b57600080fd5b919050565b60008060408385031215620001b457600080fd5b620001bf8362000183565b9150620001cf6020840162000183565b90509250929050565b6130e480620001e86000396000f3fe608060405234801561001057600080fd5b50600436106101fb5760003560e01c806375151b631161011a578063a030e856116100ad578063ca4c64cf1161007c578063ca4c64cf14610469578063cac5c5121461047c578063e1231d501461048f578063ed9ed696146104a2578063f2fde38b146104b557600080fd5b8063a030e8561461041a578063a90d580d1461043a578063b0eefabe1461044d578063c04c22a41461046057600080fd5b80638456cb59116100e95780638456cb59146103d65780638b1ec1ba146103de5780638da5cb5b146103f157806395ccea671461040757600080fd5b806375151b631461036e578063763191901461039a57806382458c6b146103ad57806382fd5bac146103b657600080fd5b80634d9879e3116101925780636b71d315116101615780636b71d315146103155780636cc6cde1146103285780636d69fcaf14610353578063715018a61461036657600080fd5b80634d9879e3146102bf5780635c975abb146102c85780635eced786146102df57806368c4ac26146102f257600080fd5b80633af7627f116101ce5780633af7627f146102705780633f4ba83a1461028357806343561aa01461028b57806343ab265f1461029e57600080fd5b806303988f84146102005780632e5df6e31461023557806331ea1a391461024a57806334b25ee21461025d575b600080fd5b61021361020e3660046129e8565b6104c8565b60405161022c9d9c9b9a99989796959493929190612a7f565b60405180910390f35b6102486102433660046129e8565b6105d2565b005b6102486102583660046129e8565b61096a565b61024861026b366004612b20565b610dc8565b61024861027e3660046129e8565b61110f565b610248611166565b6102486102993660046129e8565b611178565b6102b16102ac366004612b6c565b611518565b60405190815260200161022c565b6102b160055481565b60015460ff165b604051901515815260200161022c565b6102b16102ed366004612ba4565b611589565b6102cf610300366004612b6c565b60036020526000908152604090205460ff1681565b6102b1610323366004612c92565b611b35565b60085461033b906001600160a01b031681565b6040516001600160a01b03909116815260200161022c565b610248610361366004612b6c565b611b66565b610248611bba565b6102cf61037c366004612b6c565b6001600160a01b031660009081526003602052604090205460ff1690565b6102486103a8366004612b6c565b611bcc565b6102b160065481565b6103c96103c43660046129e8565b611c1d565b60405161022c9190612cbc565b610248611da1565b6102486103ec3660046129e8565b611db1565b60015461010090046001600160a01b031661033b565b610248610415366004612c92565b6120c7565b61042d610428366004612b6c565b6121b9565b60405161022c9190612dae565b6102486104483660046129e8565b612225565b61024861045b366004612b6c565b61230d565b6102b160095481565b610248610477366004612b6c565b61238d565b61024861048a3660046129e8565b612406565b61024861049d3660046129e8565b6124fd565b60075461033b906001600160a01b031681565b6102486104c3366004612b6c565b61255e565b600260208190526000918252604090912080546001820154928201546003830154600484015460058501546006860154600787015460088801546009890154600a8a0180546001600160a01b039a8b169c8b169b9a9099169997989697959694959394929360ff808416946101008504821694620100009004909116929061054f90612df2565b80601f016020809104026020016040519081016040528092919081815260200182805461057b90612df2565b80156105c85780601f1061059d576101008083540402835291602001916105c8565b820191906000526020600020905b8154815290600101906020018083116105ab57829003601f168201915b505050505090508d565b600081815260026020526040902060030154819061060b5760405162461bcd60e51b815260040161060290612e2c565b60405180910390fd5b600082815260026020818152604080842081516101a08101835281546001600160a01b03908116825260018301548116948201949094529381015490921690830152600381015460608301526004808201546080840152600582015460a0840152600682015460c0840152600782015460e084015260088201546101008401526009820154869493929161012084019160ff16908111156106ae576106ae612a01565b60048111156106bf576106bf612a01565b8152600982015460ff6101008204811615156020840152620100009091041615156040820152600a820180546060909201916106fa90612df2565b80601f016020809104026020016040519081016040528092919081815260200182805461072690612df2565b80156107735780601f1061074857610100808354040283529160200191610773565b820191906000526020600020905b81548152906001019060200180831161075657829003601f168201915b505050505081525050905080600001516001600160a01b0316336001600160a01b031614806107b7575080602001516001600160a01b0316336001600160a01b0316145b806107e3575060015461010090046001600160a01b03166001600160a01b0316336001600160a01b0316145b806107f857506008546001600160a01b031633145b6108145760405162461bcd60e51b815260040161060290612e59565b61081c61259c565b60008481526002602052604090206001600982015460ff16600481111561084557610845612a01565b146108625760405162461bcd60e51b815260040161060290612e81565b80600701544210156108b65760405162461bcd60e51b815260206004820152601760248201527f52656e74616c20706572696f64206e6f7420656e6465640000000000000000006044820152606401610602565b80546001600160a01b031633036108dd5760098101805461ff001916610100179055610905565b60018101546001600160a01b031633036109055760098101805462ff00001916620100001790555b604051339086907fa64ae312332793d3680fff76a94d57f981669d7c584bc07f181163f4fbb25ebf90600090a36009810154610100900460ff1680156109555750600981015462010000900460ff165b1561096357610963856125c0565b5050505050565b600081815260026020526040902060030154819061099a5760405162461bcd60e51b815260040161060290612e2c565b600082815260026020818152604080842081516101a08101835281546001600160a01b03908116825260018301548116948201949094529381015490921690830152600381015460608301526004808201546080840152600582015460a0840152600682015460c0840152600782015460e084015260088201546101008401526009820154869493929161012084019160ff1690811115610a3d57610a3d612a01565b6004811115610a4e57610a4e612a01565b8152600982015460ff6101008204811615156020840152620100009091041615156040820152600a82018054606090920191610a8990612df2565b80601f0160208091040260200160405190810160405280929190818152602001828054610ab590612df2565b8015610b025780601f10610ad757610100808354040283529160200191610b02565b820191906000526020600020905b815481529060010190602001808311610ae557829003601f168201915b505050505081525050905080600001516001600160a01b0316336001600160a01b03161480610b46575080602001516001600160a01b0316336001600160a01b0316145b80610b72575060015461010090046001600160a01b03166001600160a01b0316336001600160a01b0316145b80610b8757506008546001600160a01b031633145b610ba35760405162461bcd60e51b815260040161060290612e59565b610bab61259c565b600084815260026020526040812090600982015460ff166004811115610bd357610bd3612a01565b14610c205760405162461bcd60e51b815260206004820152601d60248201527f43616e206f6e6c792063616e63656c2070656e64696e67206465616c730000006044820152606401610602565b80546001600160a01b0316331480610c44575060018101546001600160a01b031633145b80610c70575060015461010090046001600160a01b03166001600160a01b0316336001600160a01b0316145b610cbc5760405162461bcd60e51b815260206004820152601860248201527f4e6f7420617574686f72697a656420746f2063616e63656c00000000000000006044820152606401610602565b60028101546001820154600383015460405163a9059cbb60e01b81526001600160a01b0392831660048201526024810191909152911690819063a9059cbb906044016020604051808303816000875af1158015610d1d573d6000803e3d6000fd5b505050506040513d601f19601f82011682018060405250810190610d419190612eaa565b610d865760405162461bcd60e51b81526020600482015260166024820152751499599d5b99081d1c985b9cd9995c8819985a5b195960521b6044820152606401610602565b60098201805460ff1916600417905560405186907f31b0c01e8429f81903c3f8adc204767b8efa7cfca91a00f3b4bb40ce63c8a20690600090a2505050505050565b6000828152600260205260409020600301548290610df85760405162461bcd60e51b815260040161060290612e2c565b610e0061259c565b6008546001600160a01b0316331480610e3a575060015461010090046001600160a01b03166001600160a01b0316336001600160a01b0316145b610e865760405162461bcd60e51b815260206004820152601960248201527f4e6f7420617574686f72697a656420746f207265736f6c7665000000000000006044820152606401610602565b60008381526002602052604090206003600982015460ff166004811115610eaf57610eaf612a01565b14610ef05760405162461bcd60e51b81526020600482015260116024820152701119585b081b9bdd08191a5cdc1d5d1959607a1b6044820152606401610602565b60028101546001600160a01b03166000808515610fe25750508154600583015460075460048086015460405163a9059cbb60e01b81526001600160a01b03938416928101929092526024820152928116929084169063a9059cbb906044016020604051808303816000875af1158015610f6d573d6000803e3d6000fd5b505050506040513d601f19601f82011682018060405250810190610f919190612eaa565b610fdd5760405162461bcd60e51b815260206004820152601f60248201527f4d61726b6574706c61636520666565207472616e73666572206661696c6564006044820152606401610602565b610ffb565b5050600182015460038301546001600160a01b03909116905b60405163a9059cbb60e01b81526001600160a01b0383811660048301526024820183905284169063a9059cbb906044016020604051808303816000875af115801561104a573d6000803e3d6000fd5b505050506040513d601f19601f8201168201806040525081019061106e9190612eaa565b6110b35760405162461bcd60e51b815260206004820152601660248201527515da5b9b995c881d1c985b9cd9995c8819985a5b195960521b6044820152606401610602565b60098401805460ff19166002179055604080516001600160a01b03841681526020810183905288917f4ee5ab773837e93a7a6468f621d52bd783964bec012a5c93eaebbf384b948cd3910160405180910390a250505050505050565b6111176127ef565b6107d08111156111615760405162461bcd60e51b81526020600482015260156024820152744665652063616e6e6f74206578636565642032302560581b6044820152606401610602565b600655565b61116e6127ef565b611176612822565b565b60008181526002602052604090206003015481906111a85760405162461bcd60e51b815260040161060290612e2c565b600082815260026020818152604080842081516101a08101835281546001600160a01b03908116825260018301548116948201949094529381015490921690830152600381015460608301526004808201546080840152600582015460a0840152600682015460c0840152600782015460e084015260088201546101008401526009820154869493929161012084019160ff169081111561124b5761124b612a01565b600481111561125c5761125c612a01565b8152600982015460ff6101008204811615156020840152620100009091041615156040820152600a8201805460609092019161129790612df2565b80601f01602080910402602001604051908101604052809291908181526020018280546112c390612df2565b80156113105780601f106112e557610100808354040283529160200191611310565b820191906000526020600020905b8154815290600101906020018083116112f357829003601f168201915b505050505081525050905080600001516001600160a01b0316336001600160a01b03161480611354575080602001516001600160a01b0316336001600160a01b0316145b80611380575060015461010090046001600160a01b03166001600160a01b0316336001600160a01b0316145b8061139557506008546001600160a01b031633145b6113b15760405162461bcd60e51b815260040161060290612e59565b6113b961259c565b60008481526002602052604090206001600982015460ff1660048111156113e2576113e2612a01565b148061140657506000600982015460ff16600481111561140457611404612a01565b145b6114525760405162461bcd60e51b815260206004820152601860248201527f43616e6e6f7420646973707574652074686973206465616c00000000000000006044820152606401610602565b80546001600160a01b0316331480611476575060018101546001600160a01b031633145b6114d55760405162461bcd60e51b815260206004820152602a60248201527f4f6e6c79206465616c207061727469636970616e74732063616e207265706f726044820152697420646973707574657360b01b6064820152608401610602565b60098101805460ff19166003179055604051339086907fa68d56a81a9be734bdfa17f0fb210239cdc6cac8f3bcb9d5c09841fcab4b1d8a90600090a35050505050565b6040516370a0823160e01b81523060048201526000906001600160a01b038316906370a0823190602401602060405180830381865afa15801561155f573d6000803e3d6000fd5b505050506040513d601f19601f820116820180604052508101906115839190612ec7565b92915050565b600061159361259c565b61159b612874565b6001600160a01b0387166115e95760405162461bcd60e51b8152602060048201526015602482015274496e76616c6964206f776e6572206164647265737360581b6044820152606401610602565b336001600160a01b0388160361163a5760405162461bcd60e51b815260206004820152601660248201527527bbb732b91031b0b73737ba103132903932b73a32b960511b6044820152606401610602565b6001600160a01b03861660009081526003602052604090205460ff166116985760405162461bcd60e51b8152602060048201526013602482015272151bdad95b881b9bdd081cdd5c1c1bdc9d1959606a1b6044820152606401610602565b600085116116e85760405162461bcd60e51b815260206004820152601d60248201527f416d6f756e74206d7573742062652067726561746572207468616e20300000006044820152606401610602565b4284116117375760405162461bcd60e51b815260206004820152601c60248201527f53746172742064617465206d75737420626520696e20667574757265000000006044820152606401610602565b8383116117905760405162461bcd60e51b815260206004820152602160248201527f456e642064617465206d757374206265206166746572207374617274206461746044820152606560f81b6064820152608401610602565b60008251116117e15760405162461bcd60e51b815260206004820152601760248201527f4974656d2049442063616e6e6f7420626520656d7074790000000000000000006044820152606401610602565b6000612710600654876117f49190612ef6565b6117fe9190612f0d565b9050600061180c8288612f2f565b6040516323b872dd60e01b81523360048201523060248201526044810189905290915088906001600160a01b038216906323b872dd906064016020604051808303816000875af1158015611864573d6000803e3d6000fd5b505050506040513d601f19601f820116820180604052508101906118889190612eaa565b6118cc5760405162461bcd60e51b8152602060048201526015602482015274151bdad95b881d1c985b9cd9995c8819985a5b1959605a1b6044820152606401610602565b60006005549050604051806101a001604052808c6001600160a01b03168152602001336001600160a01b031681526020018b6001600160a01b031681526020018a81526020018581526020018481526020018981526020018881526020014281526020016000600481111561194357611943612a01565b815260006020808301829052604080840183905260609384018b9052858352600280835292819020855181546001600160a01b03199081166001600160a01b039283161783559387015160018084018054871692841692909217909155928701519482018054909416941693909317909155918301516003820155608083015160048083019190915560a0840151600583015560c0840151600683015560e08401516007830155610100840151600883015561012084015160098301805493949193909260ff1990911691908490811115611a2057611a20612a01565b02179055506101408201516009820180546101608501511515620100000262ff000019931515610100029390931662ffff001990911617919091179055610180820151600a820190611a729082612f92565b5050506001600160a01b038b16600090815260046020908152604080832080546001818101835591855283852001859055338452908320805491820181558352908220018290556005805491611ac783613052565b9190505550336001600160a01b03168b6001600160a01b0316827f1685f9533f841eabdfc0546e73288baff1f799d93d92b8c04943a8ad383c2d928d8d8b604051611b149392919061306b565b60405180910390a49350505050611b2b6001600055565b9695505050505050565b60046020528160005260406000208181548110611b5157600080fd5b90600052602060002001600091509150505481565b611b6e6127ef565b6001600160a01b038116600081815260036020526040808220805460ff19166001179055517f784c8f4dbf0ffedd6e72c76501c545a70f8b203b30a26ce542bf92ba87c248a49190a250565b611bc26127ef565b611176600061289e565b611bd46127ef565b6001600160a01b038116600081815260036020526040808220805460ff19169055517f4c910b69fe65a61f7531b9c5042b2329ca7179c77290aa7e2eb3afa3c8511fd39190a250565b611c25612956565b60008281526002602081815260409283902083516101a08101855281546001600160a01b03908116825260018301548116938201939093529281015490911692820192909252600382015460608201526004808301546080830152600583015460a0830152600683015460c0830152600783015460e08301526008830154610100830152600983015491929161012084019160ff90911690811115611ccc57611ccc612a01565b6004811115611cdd57611cdd612a01565b8152600982015460ff6101008204811615156020840152620100009091041615156040820152600a82018054606090920191611d1890612df2565b80601f0160208091040260200160405190810160405280929190818152602001828054611d4490612df2565b8015611d915780601f10611d6657610100808354040283529160200191611d91565b820191906000526020600020905b815481529060010190602001808311611d7457829003601f168201915b5050505050815250509050919050565b611da96127ef565b6111766128f8565b6000818152600260205260409020600301548190611de15760405162461bcd60e51b815260040161060290612e2c565b600082815260026020818152604080842081516101a08101835281546001600160a01b03908116825260018301548116948201949094529381015490921690830152600381015460608301526004808201546080840152600582015460a0840152600682015460c0840152600782015460e084015260088201546101008401526009820154869493929161012084019160ff1690811115611e8457611e84612a01565b6004811115611e9557611e95612a01565b8152600982015460ff6101008204811615156020840152620100009091041615156040820152600a82018054606090920191611ed090612df2565b80601f0160208091040260200160405190810160405280929190818152602001828054611efc90612df2565b8015611f495780601f10611f1e57610100808354040283529160200191611f49565b820191906000526020600020905b815481529060010190602001808311611f2c57829003601f168201915b505050505081525050905080600001516001600160a01b0316336001600160a01b03161480611f8d575080602001516001600160a01b0316336001600160a01b0316145b80611fb9575060015461010090046001600160a01b03166001600160a01b0316336001600160a01b0316145b80611fce57506008546001600160a01b031633145b611fea5760405162461bcd60e51b815260040161060290612e59565b611ff261259c565b600084815260026020526040812090600982015460ff16600481111561201a5761201a612a01565b1461205a5760405162461bcd60e51b815260206004820152601060248201526f4465616c206e6f742070656e64696e6760801b6044820152606401610602565b80546001600160a01b031633146120b35760405162461bcd60e51b815260206004820152601760248201527f4f6e6c79206f776e65722063616e2061637469766174650000000000000000006044820152606401610602565b600901805460ff1916600117905550505050565b6120cf6127ef565b816001600160a01b03811663a9059cbb6120f76001546001600160a01b036101009091041690565b6040516001600160e01b031960e084901b1681526001600160a01b039091166004820152602481018590526044016020604051808303816000875af1158015612144573d6000803e3d6000fd5b505050506040513d601f19601f820116820180604052508101906121689190612eaa565b6121b45760405162461bcd60e51b815260206004820152601960248201527f456d657267656e6379207769746864726177206661696c6564000000000000006044820152606401610602565b505050565b6001600160a01b03811660009081526004602090815260409182902080548351818402810184019094528084526060939283018282801561221957602002820191906000526020600020905b815481526020019060010190808311612205575b50505050509050919050565b60008181526002602052604090206003015481906122555760405162461bcd60e51b815260040161060290612e2c565b61225d61259c565b60008281526002602052604090206001600982015460ff16600481111561228657612286612a01565b146122a35760405162461bcd60e51b815260040161060290612e81565b60095481600701546122b5919061309b565b4210156123045760405162461bcd60e51b815260206004820152601b60248201527f446973707574652074696d656f7574206e6f74207265616368656400000000006044820152606401610602565b6121b4836125c0565b6123156127ef565b6001600160a01b03811661236b5760405162461bcd60e51b815260206004820152601a60248201527f496e76616c69642061726269747261746f7220616464726573730000000000006044820152606401610602565b600880546001600160a01b0319166001600160a01b0392909216919091179055565b6123956127ef565b6001600160a01b0381166123e45760405162461bcd60e51b8152602060048201526016602482015275496e76616c69642077616c6c6574206164647265737360501b6044820152606401610602565b600780546001600160a01b0319166001600160a01b0392909216919091179055565b60008181526002602052604090206003015481906124365760405162461bcd60e51b815260040161060290612e2c565b61243e61259c565b612446612874565b600082815260026020526040902080546001600160a01b031633146124ad5760405162461bcd60e51b815260206004820181905260248201527f4f6e6c79206f776e65722063616e206d61726b20617320636f6d706c657465646044820152606401610602565b6001600982015460ff1660048111156124c8576124c8612a01565b146124e55760405162461bcd60e51b815260040161060290612e81565b6124ee836125c0565b506124f96001600055565b5050565b6125056127ef565b62015180811015801561251b575062278d008111155b6125595760405162461bcd60e51b815260206004820152600f60248201526e125b9d985b1a59081d1a5b595bdd5d608a1b6044820152606401610602565b600955565b6125666127ef565b6001600160a01b03811661259057604051631e4fbdf760e01b815260006004820152602401610602565b6125998161289e565b50565b60015460ff16156111765760405163d93c066560e01b815260040160405180910390fd5b60008181526002602052604090206001600982015460ff1660048111156125e9576125e9612a01565b146126065760405162461bcd60e51b815260040161060290612e81565b60028101548154600583015460405163a9059cbb60e01b81526001600160a01b0392831660048201526024810191909152911690819063a9059cbb906044016020604051808303816000875af1158015612664573d6000803e3d6000fd5b505050506040513d601f19601f820116820180604052508101906126889190612eaa565b6126cc5760405162461bcd60e51b815260206004820152601560248201527413dddb995c881d1c985b9cd9995c8819985a5b1959605a1b6044820152606401610602565b60075460048381015460405163a9059cbb60e01b81526001600160a01b039384169281019290925260248201529082169063a9059cbb906044016020604051808303816000875af1158015612725573d6000803e3d6000fd5b505050506040513d601f19601f820116820180604052508101906127499190612eaa565b6127955760405162461bcd60e51b815260206004820152601f60248201527f4d61726b6574706c61636520666565207472616e73666572206661696c6564006044820152606401610602565b60098201805460ff191660021790556005820154600483015460408051928352602083019190915284917f288c4f69e41b68e52705717bf70617f3c77f4a2de96489356afc0591a8064485910160405180910390a2505050565b6001546001600160a01b036101009091041633146111765760405163118cdaa760e01b8152336004820152602401610602565b61282a612933565b6001805460ff191690557f5db9ee0a495bf2e6ff9c91a7834c1ba4fdd244a5e8aa4e537bd38aeae4b073aa335b6040516001600160a01b03909116815260200160405180910390a1565b60026000540361289757604051633ee5aeb560e01b815260040160405180910390fd5b6002600055565b600180546001600160a01b03838116610100818102610100600160a81b031985161790945560405193909204169182907f8be0079c531659141344cd1fd0a4f28419497f9722a3daafe3b4186f6b6457e090600090a35050565b61290061259c565b6001805460ff1916811790557f62e78cea01bee320cd4e420270b5ea74000d11b0c9f74754ebdbfc544b05a25833612857565b60015460ff1661117657604051638dfc202b60e01b815260040160405180910390fd5b604051806101a0016040528060006001600160a01b0316815260200160006001600160a01b0316815260200160006001600160a01b03168152602001600081526020016000815260200160008152602001600081526020016000815260200160008152602001600060048111156129cf576129cf612a01565b8152600060208201819052604082015260609081015290565b6000602082840312156129fa57600080fd5b5035919050565b634e487b7160e01b600052602160045260246000fd5b60058110612a3557634e487b7160e01b600052602160045260246000fd5b9052565b6000815180845260005b81811015612a5f57602081850181015186830182015201612a43565b506000602082860101526020601f19601f83011685010191505092915050565b6001600160a01b038e811682528d811660208301528c166040820152606081018b9052608081018a905260a0810189905260c0810188905260e081018790526101008101869052612ad4610120820186612a17565b8315156101408201528215156101608201526101a06101808201526000612aff6101a0830184612a39565b9f9e505050505050505050505050505050565b801515811461259957600080fd5b60008060408385031215612b3357600080fd5b823591506020830135612b4581612b12565b809150509250929050565b80356001600160a01b0381168114612b6757600080fd5b919050565b600060208284031215612b7e57600080fd5b612b8782612b50565b9392505050565b634e487b7160e01b600052604160045260246000fd5b60008060008060008060c08789031215612bbd57600080fd5b612bc687612b50565b9550612bd460208801612b50565b945060408701359350606087013592506080870135915060a087013567ffffffffffffffff80821115612c0657600080fd5b818901915089601f830112612c1a57600080fd5b813581811115612c2c57612c2c612b8e565b604051601f8201601f19908116603f01168101908382118183101715612c5457612c54612b8e565b816040528281528c6020848701011115612c6d57600080fd5b8260208601602083013760006020848301015280955050505050509295509295509295565b60008060408385031215612ca557600080fd5b612cae83612b50565b946020939093013593505050565b60208152612cd66020820183516001600160a01b03169052565b60006020830151612cf260408401826001600160a01b03169052565b5060408301516001600160a01b03811660608401525060608301516080830152608083015160a083015260a083015160c083015260c083015160e083015260e0830151610100818185015280850151915050610120818185015280850151915050610140612d6281850183612a17565b8401519050610160612d778482018315159052565b8401519050610180612d8c8482018315159052565b8401516101a0848101529050612da66101c0840182612a39565b949350505050565b6020808252825182820181905260009190848201906040850190845b81811015612de657835183529284019291840191600101612dca565b50909695505050505050565b600181811c90821680612e0657607f821691505b602082108103612e2657634e487b7160e01b600052602260045260246000fd5b50919050565b6020808252601390820152721119585b08191bd95cc81b9bdd08195e1a5cdd606a1b604082015260600190565b6020808252600e908201526d139bdd08185d5d1a1bdc9a5e995960921b604082015260600190565b6020808252600f908201526e4465616c206e6f742061637469766560881b604082015260600190565b600060208284031215612ebc57600080fd5b8151612b8781612b12565b600060208284031215612ed957600080fd5b5051919050565b634e487b7160e01b600052601160045260246000fd5b808202811582820484141761158357611583612ee0565b600082612f2a57634e487b7160e01b600052601260045260246000fd5b500490565b8181038181111561158357611583612ee0565b601f8211156121b4576000816000526020600020601f850160051c81016020861015612f6b5750805b601f850160051c820191505b81811015612f8a57828155600101612f77565b505050505050565b815167ffffffffffffffff811115612fac57612fac612b8e565b612fc081612fba8454612df2565b84612f42565b602080601f831160018114612ff55760008415612fdd5750858301515b600019600386901b1c1916600185901b178555612f8a565b600085815260208120601f198616915b8281101561302457888601518255948401946001909101908401613005565b50858210156130425787850151600019600388901b60f8161c191681555b5050505050600190811b01905550565b60006001820161306457613064612ee0565b5060010190565b60018060a01b03841681528260208201526060604082015260006130926060830184612a39565b95945050505050565b8082018082111561158357611583612ee056fea2646970667358221220eea4607a86841352726d3fbfe9603b73799adb007d76e4da5fef25ef8ba8ec8664736f6c63430008180033",
  "linkReferences": {},
  "deployedLinkReferences": {}
}